:10000000A8C00000C4C00000C2C00000C0C0000002
:10001000BEC00000BCC00000BAC00000B8C00000F4
:10002000B6C00000B4C0000093C40000B0C000001F
:10003000AEC00000ACC00000AAC00000A8C0000014
:10004000A6C00000A4C00000A2C00000A0C0000024
:100050009EC000009CC000009AC0000098C0000034
:1000600096C0000094C0000092C0000090C0000044
:100070008EC000008CC000008AC0000088C0000054
:1000800086C0000084C0000082C0000080C0000064
:100090007EC000007CC0000005010906A101050723
:1000A00019E029E7150025017501950881029501E0
:1000B0007508810105081901290595057501910249
:1000C000950175039101150025FF0507190029FF0A
:1000D000950675088100C01201100100000008EBB0
:1000E0000342200100010200010902220001010077
:1000F000C0320904000001030101000921110100BF
:1001000001223F00070581030800050403090418C4
:10011000034400650061006E002000430061006D33
:1001200000650072006100000026034C0055004687
:1001300000410020004B006500790062006F006103
:1001400000720064002000440065006D006F000034
:10015000000011241FBECFEFD0E2DEBFCDBF11E003
:10016000A0E0B1E0E2E6F2E100E00BBF02C00790E0
:100170000D92A236B107D9F711E0A2E6B1E001C0B5
:100180001D92A93CB107E1F796D00C942F0938CF06
:100190009BB18095906489238BB9089584B7877F3C
:1001A00084BF88E10FB6F8948093600010926000DD
:1001B0000FBE90E080E80FB6F894809361009093B2
:1001C00061000FBEAAD315B814B88FEF85B918B85F
:1001D00017B888B911BA10BA81BB0895089580E4A0
:1001E000D7CF80E091E039D79091E200946090936E
:1001F000E20080FF02C080E001C080E4C9CF80E05F
:1002000091E0EEC580910E0190910F01009729F0C9
:10021000019790930F0180930E01089580916301DF
:100220008F5F809363018A30B8F0809162018F5FA5
:1002300080936201883010F0109262011092630185
:1002400081E090E00090620102C0880F991F0A943B
:10025000E2F784B9809585B98FE891E00197F1F7CD
:1002600000C0000040916301242F30E090916201B2
:100270008AE0989FC0011124820F931F483010F428
:100280006FB104C066B1A9014850504021E030E090
:1002900002C0220F331F4A95E2F7622384599E4F12
:1002A000FC016083662331F48FE891E00197F1F758
:1002B00000C00000089572DF7894B0DF80E091E024
:1002C000E5D672D5FACFEF92FF920F931F93CF939B
:1002D000DF93F90176B1872F90E02091600130E043
:1002E0002827392724FF04C029E3228361E001C0C5
:1002F00060E07093600186FD24C0AC0148705070CE
:1003000082FF0EC0262F30E06F5F4115510521F0AE
:100310002E0F3F1F4EE311C02E0F3F1F4CE30DC0A9
:10032000262F30E06F5F4115510521F02E0F3F1F42
:100330004DE303C02E0F3F1F4BE3D90112964C93A0
:100340001297CCE6D1E090E1E92E91E0F92E2991C7
:10035000222351F49F01260F311DD7014C91D90161
:1003600012964C9312976F5F0894E11CF11CB1E058
:10037000CC3BDB0711F0643050F3108277FD02C0F4
:1003800022E0208385FD03C02081216020837470DA
:100390002081722B83FF02C080E401C080E0782BB3
:1003A000708388E090E0F8019183808380E0DF91A2
:1003B000CF911F910F91FF90EF9008950895933082
:1003C00089F0943028F4913049F1923061F505C0FC
:1003D0009132D1F0923239F51CC022E230E0E9EEE0
:1003E000F0E025C0813041F0813018F08230D9F43E
:1003F00006C0EBE0F1E005C0EFE0F1E002C0E9E2A9
:10040000F1E0249130E013C029E030E0EBEFF0E0C0
:100410000EC02FE330E0E8E9F0E009C022E130E06F
:10042000E7EDF0E004C020E030E0E0E0F0E0DA01E9
:100430001196FC93EE93C90108958F929F92BF92FB
:10044000CF92DF92EF92FF920F931F93DF93CF93A0
:100450000F92CDB7DEB7E82E4B018A019983E4D124
:10046000B82E99818823C9F5F92E0115110539F0A7
:10047000F80120813181821A930AE20EF31ECC2406
:10048000DD2426C08091E80085FD17C08091E8003A
:100490008E778093E80088D40115110551F0F8019A
:1004A000808191818C0D9D1D9183808325E0B22EEA
:1004B00014C0BAD1882361F00FC0F70181917F0188
:1004C0008093F1000894810891080894C11CD11C04
:1004D00081149104B9F601C0B82E8B2D0F90CF91E5
:1004E000DF911F910F91FF90EF90DF90CF90BF9021
:1004F0009F908F900895282F392FF9018091C7017F
:100500009091C8018617970718F4BC0120E037C006
:1005100061157105D9F78091E8008E778093E80026
:10052000F5CF8091C001882309F43FC08530C9F11F
:100530008091E80083FD37C08091E80082FD2BC0E8
:100540008091E80080FF1BC08091F2009091F30041
:1005500006C021912093F100615070400196611511
:10056000710519F088309105A0F321E088309105DC
:1005700009F020E08091E8008E778093E800611513
:10058000710579F6222369F606C08091C00188239F
:1005900061F0853061F08091E80082FFF6CF80E065
:1005A000089583E0089581E0089582E0089583E04E
:1005B00008956115710531F520C02091C0012223F5
:1005C000A9F1253079F12091E80023FD2DC020917B
:1005D000E80022FFF2CFE82FF92F07C08091F10049
:1005E0008193CF016150704041F0CF012091F20022
:1005F0003091F3002115310589F72091E8002B7720
:100600002093E80061157105C1F606C08091C00114
:10061000882361F0853061F08091E80080FFF6CF9B
:1006200080E0089583E0089581E0089582E00895D0
:1006300083E00895E82FF92F8091C7019091C801B8
:100640008617970718F4BC0120E038C061157105C2
:10065000D9F78091E8008E778093E800F5CF8091FC
:10066000C001882309F440C08530D1F18091E800B1
:1006700083FD38C08091E80082FD2CC08091E800A5
:1006800080FF1CC08091F2009091F30007C024917C
:100690002093F1003196615070400196611571050B
:1006A00019F08830910598F321E08830910509F020
:1006B00020E08091E8008E778093E8006115710555
:1006C00071F6222361F606C08091C001882361F093
:1006D000853061F08091E80082FFF6CF80E00895D8
:1006E00083E0089581E0089582E0089583E008950D
:1006F000982F2CC0292F2F702093E900981739F0DC
:100700007091EC002091ED005091F00003C0242F77
:10071000762F50E021FF19C03091EB003E7F3093DF
:10072000EB003091ED003D7F3093ED003091EB0018
:1007300031603093EB007093EC002093ED00509308
:10074000F0002091EE0027FF08C09F5F973090F2E5
:100750008F708093E90081E0089580E00895EF9222
:10076000FF920F931F93CF93DF93162FE82EE7018D
:100770007E01F92EE70100E02AC09881992329F132
:100780006B81E981FA812C81892F8F70873018F570
:100790006295660F660F607C991F9927991F692BD8
:1007A000223010F096E001C092E028E030E040E016
:1007B00003C04F5F220F331F2E173F07D0F3429520
:1007C000407F492B95DF882331F00F5F2596011775
:1007D000A0F281E001C080E0DF91CF911F910F91E5
:1007E000FF90EF9008958091C10187FF13C004C06E
:1007F0008091C0018823B9F08091E80082FFF8CF92
:100800008091E8008B778093E80008958091C00183
:10081000882349F08091E80080FFF8CF8091E800BC
:100820008E778093E80008958091E4009091E50030
:1008300044E62091EC0020FF26C02091E80020FD36
:1008400016C02091C0012223A1F02530A1F02091F3
:10085000EB0025FD12C02091E4003091E50028173F
:10086000390739F3442359F04150C901E2CF80E000
:10087000089582E0089583E0089581E0089584E07A
:10088000089580E008952091E80022FFDACFF9CFA3
:100890000F931F93CF93DF934ED055D0C8EDD0E088
:1008A00088818F77888388818068888388818F7D1D
:1008B0008883E7EDF0E080818068808319BC109226
:1008C000C0011092BC011092BE011092BD0100EE59
:1008D00010E0F80180818B7F80838881816088832C
:1008E00080E060E042E004DFE1EEF0E080818E7FB6
:1008F0008083E2EEF0E08081816080838081886087
:100900008083F80180818E7F8083888180618883E5
:10091000DF91CF911F910F910895E8EDF0E0808174
:100920008F7E8083E7EDF0E080818160808381E0CD
:100930008093BF01ADCFE8EDF0E080818C7F8083B4
:100940001092E20008951092DA001092E1000895EA
:100950001F920F920FB60F920BB60F9211242F9386
:100960003F934F935F936F937F938F939F93AF9337
:10097000BF93EF93FF938091E10082FF0AC08091C3
:10098000E20082FF06C08091E1008B7F8093E1004E
:1009900039DC8091DA0080FF1DC08091D80080FF93
:1009A00019C08091DA008E7F8093DA008091D9009F
:1009B00080FF0CC084E189BD86E189BD09B400FED9
:1009C000FDCF81E08093C00109DC04C019BC109206
:1009D000C00105DC8091E10080FF18C08091E20039
:1009E00080FF14C08091E2008E7F8093E2008091AE
:1009F000E20080618093E2008091D8008062809361
:100A0000D80019BC85E08093C001CDD18091E10070
:100A100084FF2DC08091E20084FF29C084E189BD5C
:100A200086E189BD09B400FEFDCF8091D8008F7D9D
:100A30008093D8008091E1008F7E8093E1008091C7
:100A4000E2008F7E8093E2008091E20081608093DB
:100A5000E2008091BC01882321F48091E30087FFAC
:100A600002C084E001C081E08093C0019CD18091EC
:100A7000E10083FF22C08091E20083FF1EC08091CD
:100A8000E100877F8093E10082E08093C0011092B3
:100A9000BC018091E1008E7F8093E1008091E200B3
:100AA0008E7F8093E2008091E20080618093E2007B
:100AB00080E060E042E01CDE76D1FF91EF91BF91D3
:100AC000AF919F918F917F916F915F914F913F91E6
:100AD0002F910F900BBE0F900FBE0F901F90189587
:100AE0001F93DF93CF93CDB7DEB7AC970FB6F894D3
:100AF000DEBF0FBECDBFE1ECF1E08091F10081934C
:100B000021E0E93CF207C9F77ADB8091E80083FF36
:100B100032C18091C1012091C201253009F484C005
:100B2000263040F42130A1F1213070F0233009F05B
:100B300022C12EC0283009F4F0C0293009F4FFC0CA
:100B4000263009F018C193C0803821F0823809F0AE
:100B500012C108C08091BD019091BE01992371F02E
:100B600082600CC08091C5018F708093E9009091E4
:100B7000EB0081E095FF80E01092E9009091E800A1
:100B8000977F9093E8008093F1001092F100D0C01D
:100B9000882319F0823009F0EEC090E08F719070D8
:100BA000009729F08230910509F0E5C00BC08091D3
:100BB000C301813009F0DFC0233009F080E0809369
:100BC000BE012CC08091C301882341F52091C5014D
:100BD0002F7009F4D0C02093E9008091EB0080FFD2
:100BE0001DC08091C201833021F48091EB008062AE
:100BF00013C08091EB0080618093EB0081E090E076
:100C000002C0880F991F2A95E2F78093EA0010929C
:100C1000EA008091EB0088608093EB001092E9007D
:100C20008091E800877F87C0882309F0A4C01091D5
:100C3000C3011F778091E3008078812B8093E300CC
:100C40008091E800877F8093E800CDDD8091E80007
:100C500080FFFCCF8091E30080688093E300112344
:100C600011F083E001C082E08093C00184C080580D
:100C7000823008F080C08091C3019091C40123E0CC
:100C80008C3D920791F583E08C838AE28B835FB77A
:100C9000F894DE01159680E090E04EE061E2E42FEA
:100CA000F0E060935700E49180FF03C0E295EF709D
:100CB0004F5FEF702E2F30E0EA3018F0295C3F4F85
:100CC00002C0205D3F4F2D933D93019684319105E5
:100CD00031F75FBF8091E800877F8093E800CE0105
:100CE00003966AE270E007DC12C06091C501AE01B4
:100CF0004F5F5F4F64DBBC01009709F43CC08091FB
:100D0000E800877F8093E80089819A8193DC809155
:100D1000E8008B778093E8002EC0803861F58091E1
:100D2000E800877F8093E8008091BC018093F10008
:100D30008091E8008E778093E80055DD1CC0882301
:100D4000D1F49091C3019230B0F48091E800877F94
:100D50008093E8009093BC0146DD8091BC0188231C
:100D600021F48091E30087FF02C084E001C081E0AC
:100D70008093C00136DA8091E80083FF0AC0809139
:100D8000E800877F8093E8008091EB008062809389
:100D9000EB00AC960FB6F894DEBF0FBECDBFCF917F
:100DA000DF911F91089508951F938091C0018823BA
:100DB000A9F08091E9008F709091EC0090FF02C043
:100DC00010E801C010E0182B1092E9008091E800B3
:100DD00083FF01C085DE1F701093E9001F91089505
:100DE0006F927F928F929F92AF92BF92CF92DF923B
:100DF000EF92FF920F931F93DF93CF9300D00F9248
:100E0000CDB7DEB77C016DB67EB68091E80083FF7A
:100E10000DC1F701808190E02091C5013091C6019C
:100E20002817390709F002C18091C201833009F403
:100E3000A4C0843030F4813071F0823009F0F6C003
:100E4000D9C08A3009F4BEC08B3009F4A7C08930FC
:100E500009F0ECC04CC08091C101813A09F0E6C0B4
:100E6000CDB6DEB69DB68D2C1B821A828091C30151
:100E70000091C4018983F7014085C41AD1080FB6D7
:100E8000F894DEBE0FBECDBE0894C11CD11CBC2C94
:100E9000AD2CC60160E070E050E0DAD1402F415047
:100EA000C701BE016F5F7F4F96018E010E5F1F4F1E
:100EB0000ADAF701268137812115310529F04085AD
:100EC000C901B60150E0BBD11092E9008091E80061
:100ED000877F8093E8006A817B818B2D9A2D0BDBC5
:100EE0008091E8008B778093E80094013EC0809168
:100EF000C101813209F09AC0CDB6DEB6BDB69D2CD7
:100F00000091C7011091C801A090C3018090C40155
:100F10008DB79EB7801B910B0FB6F8949EBF0FBE86
:100F20008DBFCDB6DEB60894C11CD11C8091E800FF
:100F3000877F8093E800C601B8013BDB8091E80021
:100F40008E778093E80081E090E0AA2011F480E0A1
:100F500090E0482D41509601280F391F081B190BAE
:100F6000C7016A2D2BDA3B2D292D832F922F0FB627
:100F7000F8949EBF0FBE8DBF59C08091C101813AC8
:100F800009F054C08091E800877F8093E800809149
:100F9000E80080FFFCCFF701818540C08091C1014E
:100FA000813209F043C08091E800877F8093E80098
:100FB0001ADC9091C30181E0992309F480E0F701E4
:100FC000818734C08091C101813281F58091E80030
:100FD000877F8093E80007DC8091C3019091C40172
:100FE000807036E0969587953A95E1F7F7019587F9
:100FF00084871CC08091C101813AC1F48091E800CE
:10100000877F8093E8008091E80080FFFCCFF701A4
:101010008485958596958795969587958093F1001B
:101020008091E8008E778093E800DDDB0FB6F894BE
:101030007EBE0FBE6DBE0F900F900F90CF91DF91CF
:101040001F910F91FF90EF90DF90CF90BF90AF90E6
:101050009F908F907F906F900895CF93DF93FC01C6
:101060000996DC0187E0ED0119928A95E9F781E0A4
:10107000818784EF91E09587848783E08483CF0123
:10108000019661E06CDBDF91CF9108955F926F92E2
:101090007F928F929F92AF92BF92CF92DF92EF9208
:1010A000FF920F931F93DF93CF9300D000D0CDB763
:1010B000DEB77C016DB67EB68091C001843009F048
:1010C00098C08091E4009091E500F7012285338576
:1010D0002817390709F48DC081818F708093E9004A
:1010E0008091E80085FF85C08DB6572C4085CDB630
:1010F000DEB6C41AD1080FB6F894DEBE0FBECDBE60
:101100000DB71EB70F5F1F4FB02EA12E19821B8285
:101110001A82C80160E070E050E09AD0C701BE01B9
:101120006F5F7F4F40E098018E010E5F1F4FCBD85D
:10113000982EF70184859585009759F081E090E01D
:10114000268537852115310511F080E090E06C018E
:1011500002C0CC24DD24F701068117810115110599
:10116000A1F04A815B818B2D9A2DB8015BD021E0E3
:10117000009709F420E0F7014085C8016B2D7A2D16
:1011800050E02C835CD02C8101C020E08A819B81BF
:10119000009709F1992029F4222319F4C114D104EC
:1011A000D1F0F701848595859787868781818F7037
:1011B0008093E9008981882311F08093F1006A818E
:1011C0007B818B2D9A2D40E050E037D98091E8004B
:1011D0008E778093E8008091E4009091E500F7011C
:1011E00093878287882D952D0FB6F8949EBF0FBEEA
:1011F0008DBF0FB6F8947EBE0FBE6DBE0F900F90E0
:101200000F900F90CF91DF911F910F91FF90EF9072
:10121000DF90CF90BF90AF909F908F907F906F9016
:101220005F900895FB01DC0104C08D91019080194D
:1012300021F441505040C8F7881B990B0895FB01D9
:10124000DC0102C001900D9241505040D8F7089542
:10125000DC0101C06D9341505040E0F70895F894CF
:02126000FFCFBE
:101262000081080000016401080000000000000085
:10127200291E1F202123222425262B141A08151C7F
:1012820017180C120407160B090A0D0E330F1D1B3B
:10129200061905111036373838511E1F2021312EFC
:1012A200272D30522223242534132F305550262740
:1012B200635728522C34294F305658362A51504FF2
:0212C20010001A
:00000001FF
