:10000000B2C00000CDC00000CBC00000C9C00000DD
:10001000C7C00000C5C00000C3C00000C1C00000D0
:10002000BFC00000BDC0000066C40000B9C0000031
:10003000B7C00000B5C00000B3C00000B1C00000F0
:10004000AFC00000ADC00000ABC00000A9C0000000
:10005000A7C00000A5C00000A3C00000A1C0000010
:100060009FC000009DC000009BC0000099C0000020
:1000700097C0000095C0000093C0000091C0000030
:100080008FC000008DC000008BC0000089C0000040
:1000900087C0000085C000006C058E0572068E05C5
:1000A0007206D005F20572064406560626034C0079
:1000B00055004600410020004B00650079006200B9
:1000C0006F006100720064002000440065006D0054
:1000D0006F00000018034400650061006E002000FE
:1000E000430061006D0065007200610000000403C0
:1000F000090409022200010100C0320904000001C4
:1001000003010100092111010001223F00070581BF
:10011000030800051201100100000008EB03422053
:1001200001000102000105010906A101050719E00E
:1001300029E71500250175019508810295017508CB
:10014000810105081901290595057501910295019F
:1001500075039101150025FF0507190029FF950674
:1001600075088100C00011241FBECFEFD0E2DEBFB2
:10017000CDBF11E0A0E0B1E0E4E9F1E100E00BBFA8
:1001800002C007900D92A236B107D9F711E0A2E69E
:10019000B1E001C01D92A93CB107E1F774D0F8C7E6
:1001A0002FCF9BB18095906489238BB9089580915E
:1001B00062018F5F809362018A3000F18091630158
:1001C0008F5F883018F48093630102C0109263013E
:1001D0001092620181E090E09C010090630102C0F6
:1001E000220F331F0A94E2F724B90090630102C082
:1001F000880F991F0A94E2F7809585B98FE891E0FE
:100200000197F1F700C00000309163012091620175
:10021000822F90E0FC014AE0349FE00DF11D112493
:10022000283010F44FB104C046B19C012850310968
:1002300081E090E0022E01C0880F0A94EAF748237B
:10024000E459FE4F4083411106C08FE891E00197C9
:10025000F1F700C00000089584B7877F84BF88E16C
:100260000FB6F89480936000109260000FBE90E08B
:1002700080E80FB6F89480936100909361000FBE00
:10028000569A5E9A1DC3E8DF80E48BDF78948FDF97
:1002900081E591E09DD63FD5FACF80E082CF80E422
:1002A00080CF81E591E081D69091E20094609093B7
:1002B000E200882311F080E001C080E472CF81E584
:1002C00091E045C580915F0190916001009729F010
:1002D00001979093600180935F0108950F931F939E
:1002E000CF93DF93F90146B180910001842784FF09
:1002F00004C089E3828381E001C080E04093000173
:1003000046FF05C06CE671E0C1E0D1E023C0242FB8
:10031000287090E0DF01A80FB91F42FF06C022231A
:1003200011F02EE307C02CE305C0222311F02DE3CA
:1003300001C02BE312962C93108288E090E0D80144
:100340008D939C9330C02196B1E06C3B7B0781F08C
:10035000843070F4DB019D91BD019111F4CF98813F
:100360009F01280F311DD90112969C938F5FEBCF0F
:1003700047FF02C0108202C082E0808345FD03C0B7
:10038000808181608083842F84709081892B43FFDA
:1003900002C090E401C090E0892B808388E090E067
:1003A000F8019183808380E0DF91CF911F910F91BD
:1003B00008950895292F332723303105B9F05CF4CF
:1003C0002130310569F12230310579F582E290E082
:1003D00022EF30E02EC021323105E9F02232310522
:1003E00021F58FE390E026E231E023C099278130A8
:1003F000910541F08230910541F0892BB1F4EEEE88
:10040000F0E005C0E4EDF0E002C0ECEAF0E0849139
:1004100090E09F010EC089E090E024E031E009C047
:1004200082E190E024E131E004C080E090E020E04F
:1004300030E0FA01318320830895CF92DF92EF926A
:10044000FF920F931F93CF93DF937C018B01EA01FF
:10045000C2D1811131C0209731F088819981081B68
:10046000190BE80EF91EC12CD12C0115110519F13B
:100470008091E80085FD14C08091E8008E7780931C
:10048000E80049D4209741F0888199818C0D9D1D09
:100490009983888385E010C09ED1882331F30CC0F6
:1004A000F70181917F018093F10001501109FFEF65
:1004B000CF1ADF0ADACF80E0DF91CF911F910F9141
:1004C000FF90EF90DF90CF9008952091C701309179
:1004D000C8012617370748F06115710539F42091D6
:1004E000E8002E772093E80001C0B901FC0120E06C
:1004F0006115710599F18091C0018823D9F185308A
:10050000D9F18091E80083FD33C08091E80082FF3B
:1005100006C08091E80082FF24C080E008958091A9
:10052000E80080FFE5CF8091F2009091F300611523
:10053000710551F08830910538F421912093F10034
:10054000615071090196F3CF21E0089709F020E08E
:100550008091E8008E778093E800CACF2111CBCF3D
:10056000D8CF8091C001882329F0853091F604C04E
:1005700081E0089582E0089583E008956115710592
:1005800029F42091E8002B772093E800611571058C
:1005900031F12091C001222359F1253059F12091E8
:1005A000E80023FD21C02091E80022FFF2CFFC01EA
:1005B000CF012091F2003091F300232B11F38091B1
:1005C000F1008193CF01615071096115710581F7C7
:1005D000D8CF8091C001882359F0853059F080919F
:1005E000E80080FFF6CF02C081E0089580E0089522
:1005F00082E0089583E008952091C7013091C801F9
:100600002617370748F06115710539F42091E80085
:100610002E772093E80001C0B901FC0120E06115AC
:100620007105B1F18091C001882309F43DC0853086
:1006300009F43CC08091E80083FD34C08091E8005B
:1006400082FF06C08091E80082FF25C080E0089507
:100650008091E80080FFE3CF8091F2009091F30059
:100660006115710559F08830910540F4249120936B
:10067000F1003196615071090196F2CF21E008979F
:1006800009F020E08091E8008E778093E800C7CFE2
:100690002111C8CFD7CF8091C001882329F08530A0
:1006A00089F604C081E0089582E0089583E008950A
:1006B000982F973058F59093E900981739F070917A
:1006C000EC002091ED005091F00003C0242F762F14
:1006D00050E021FF19C03091EB003E7F3093EB00DA
:1006E0003091ED003D7F3093ED003091EB003160B3
:1006F0003093EB007093EC002093ED005093F000EA
:100700002091EE0027FF07C09F5FD3CF8F708093AB
:10071000E90081E0089580E008950F931F93CF933F
:10072000DF93062FEC0110E0101771F198819923E7
:1007300041F12C81E981FA817B81892F8F7087308B
:1007400010F080E022C0223010F056E001C052E0EC
:1007500028E030E040E02E173F0720F44F5F220FE3
:10076000331FF9CF4295407F452B692F661F6627BF
:10077000661F90E4799F90011124622B99DF8823F2
:1007800001F31F5F2596D0CF81E0DF91CF911F91BC
:100790000F9108958091C10187FD05C08091E80007
:1007A00080FF0EC012C08091E80082FD05C08091DC
:1007B000C0018111F8CF08958091E8008B7708C0BF
:1007C0008091C0018111EACF08958091E8008E7771
:1007D0008093E80008958091E4009091E50045E65B
:1007E0002091EC0020FF21C02091E80020FD21C0D5
:1007F0002091C001222389F0253089F02091EB005F
:1008000025FD0FC02091E4003091E500281739073D
:1008100039F3415041F0C901E3CF82E0089583E00C
:10082000089581E0089584E008952091E80022FF72
:10083000DFCF80E008950F931F93CF93DF934ED0C7
:1008400055D0C8EDD0E088818F7788838881806813
:10085000888388818F7D8883E7EDF0E080818068E0
:10086000808319BC1092C0011092BC011092BE018D
:100870001092BD0100EE10E0F80180818B7F808333
:1008800088818160888342E060E080E011DFE1EEF2
:10089000F0E080818E7F8083E2EEF0E080818160F5
:1008A0008083808188608083F80180818E7F80834F
:1008B000888180618883DF91CF911F910F91089586
:1008C000E8EDF0E080818F7E8083E7EDF0E08081CD
:1008D0008160808381E08093BF01ADCFE8EDF0E0DF
:1008E00080818C7F80831092E20008951092DA005C
:1008F0001092E10008951F920F920FB60F921124EB
:100900000BB60F922F933F934F935F936F937F9309
:100910008F939F93AF93BF93EF93FF938091E100E9
:1009200082FF0AC08091E20082FF06C08091E10050
:100930008B7F8093E100C6DC8091DA0080FF1DC0D0
:100940008091D80080FF19C08091DA008E7F80935B
:10095000DA008091D90080FF0CC084E189BD86E176
:1009600089BD09B400FEFDCF81E08093C00195DC14
:1009700004C019BC1092C00192DC8091E10080FF9C
:1009800018C08091E20080FF14C08091E2008E7F49
:100990008093E2008091E20080618093E200809188
:1009A000D80080628093D80019BC85E08093C00194
:1009B000B1D18091E10084FF2FC08091E20084FFDB
:1009C0002BC084E189BD86E189BD09B400FEFDCF5D
:1009D0008091D8008F7D8093D8008091E1008F7E38
:1009E0008093E1008091E2008F7E8093E20080910D
:1009F000E20081608093E2008091BC01882311F0C5
:100A000084E007C08091E30087FF02C083E001C05B
:100A100081E08093C0017ED18091E10083FF22C0FC
:100A20008091E20083FF1EC08091E100877F809368
:100A3000E10082E08093C0011092BC018091E1004E
:100A40008E7F8093E1008091E2008E7F8093E200B0
:100A50008091E20080618093E20042E060E080E00B
:100A600027DE58D1FF91EF91BF91AF919F918F9168
:100A70007F916F915F914F913F912F910F900BBE9E
:100A80000F900FBE0F901F9018951F93CF93DF9379
:100A9000CDB7DEB7AA970FB6F894DEBF0FBECDBFB5
:100AA000E1ECF1E08091F100819321E0E93CF20773
:100AB000C9F705DC8091E80083FF14C12091C101D2
:100AC0003091C201832F90E08A30910508F00AC16D
:100AD000FC01E45BFF4F39C3203881F0223809F074
:100AE00001C18091C5018F708093E9008091EB0076
:100AF00085FB882780F91092E90006C08091BD012E
:100B00009091BE01911182609091E800977F90933F
:100B1000E8008093F1001092F100C1C0822F8D7F18
:100B200009F0E0C0222319F0223061F0DBC080918F
:100B3000C301813009F0D6C0333009F080E08093E2
:100B4000BE0128C08091C301811124C02091C5013C
:100B50002F7009F4C7C02093E9008091EB0080FF5B
:100B600019C08091EB00333011F4806211C08061B4
:100B70008093EB0081E090E0022E01C0880F0A9480
:100B8000EAF78093EA001092EA008091EB00886017
:100B90008093EB001092E9008091E800877F82C08B
:100BA0002111A0C01091C3011F778091E3008078CC
:100BB000812B8093E3008091E800877F8093E80099
:100BC000E9DD8091E80080FFFCCF8091E300806840
:100BD0008093E300112311F083E001C082E0809351
:100BE000C00180C02058223008F07CC08091C30131
:100BF0009091C4018C3D23E0920771F583E08A83D4
:100C00008AE289834FB7F894DE01139620E03EE034
:100C100051E2E32FF0E050935700E49120FF03C02E
:100C2000E295EF703F5FEF708E2F90E0EA3010F0AA
:100C3000C79601C0C0968D939D932F5F243149F7CD
:100C40004FBF8091E800877F8093E8006AE270E000
:100C5000CE0101963ADC12C0AE014F5F5F4F60914A
:100C6000C501A8DB009709F43DC02091E800277F6B
:100C70002093E800BC0189819A81BEDC8091E80064
:100C80008B778093E8002EC0203861F58091E800D2
:100C9000877F8093E8008091BC018093F100809170
:100CA000E8008E778093E80075DD1CC021111AC022
:100CB0009091C3019230B0F48091E800877F8093D7
:100CC000E8009093BC0166DD8091BC01811104C0F5
:100CD0008091E30087FF02C084E001C081E080933F
:100CE000C001DFDA8091E80083FF0AC08091E8004C
:100CF000877F8093E8008091EB0080628093EB0017
:100D0000AA960FB6F894DEBF0FBECDBFDF91CF918C
:100D10001F9108950895CF938091C0018823A9F071
:100D20008091E9008F709091EC0090FF02C090E8F4
:100D300001C090E0C92FC82B1092E9008091E80013
:100D400083FDA3DECF70C093E900CF9108956F9229
:100D50007F928F929F92AF92BF92CF92DF92EF924B
:100D6000FF920F931F93CF93DF9300D01F92CDB7C5
:100D7000DEB77C01ADB6BEB68091E80083FFFEC051
:100D8000F701808190E02091C5013091C6012817BC
:100D9000390709F0F3C08091C201833009F495C08E
:100DA00030F4813071F0823009F4CCC0E7C08A3071
:100DB00009F4B0C08B3009F499C0893009F0DEC065
:100DC00047C08091C101813A09F0D8C08DB69EB666
:100DD0001A8219828091C3011091C4018B83F7019B
:100DE000408550E08DB79EB7841B950B0FB6F894E5
:100DF0009EBF0FBE8DBFEDB7FEB731966F0160E0AD
:100E000070E0CF01BED14FEF410F8E010F5F1F4F3A
:100E10009601BE016D5F7F4FC70160DAF7018681E1
:100E20009781009721F0408550E0B601A1D1109242
:100E3000E9008091E800877F8093E80069817A81EA
:100E4000C60143DB8091E8008B778093E80037C0D0
:100E50008091C101813209F091C08DB69EB600919A
:100E6000C7011091C8017090C3016090C4018DB793
:100E70009EB7801B910B0FB6F8949EBF0FBE8DBF1F
:100E8000EDB7FEB731966F018091E800877F8093C0
:100E9000E800B801CF0172DB8091E8008E77809383
:100EA000E80021E0711001C020E030E0021B130BCC
:100EB0002C0D3D1D4FEF460D672DC7017ADA0FB699
:100EC000F8949EBE0FBE8DBE59C08091C101813A7B
:100ED00009F054C08091E800877F8093E8008091FA
:100EE000E80080FFFCCFF701818540C08091C101FF
:100EF000813209F043C08091E800877F8093E80049
:100F000049DC9091C30181E0911101C080E0F701BB
:100F1000818734C08091C101813281F58091E800E0
:100F2000877F8093E80036DC8091C3019091C401F3
:100F3000882736E0969587953A95E1F7F7019587EA
:100F400084871CC08091C101813AC1F48091E8007E
:100F5000877F8093E8008091E80080FFFCCFF70155
:100F60008485958596958795969587958093F100CC
:100F70008091E8008E778093E8000CDC0FB6F8943F
:100F8000BEBE0FBEADBE0F900F900F90DF91CF9100
:100F90001F910F91FF90EF90DF90CF90BF90AF9097
:100FA0009F908F907F906F900895FC01399627E075
:100FB000DF011D922A95E9F721E0FC01218724EF4A
:100FC00031E03587248723E0248361E00196A5CBB7
:100FD0005F926F927F928F929F92AF92BF92CF92C9
:100FE000DF92EF92FF920F931F93CF93DF9300D086
:100FF0001F92CDB7DEB77C01ADB6BEB68091C00101
:10100000843009F08AC08091E4009091E500F701F6
:10101000228533852817390709F47FC081818F70B5
:101020008093E9008091E80085FF77C08DB69EB679
:10103000408550E08DB79EB7841B950B0FB6F89492
:101040009EBF0FBE8DBFEDB7FEB731966F011B82FD
:101050001A82198260E070E0CF0193D08E010F5F99
:101060001F4F960140E0BE016D5F7F4FC70136D92B
:10107000682EF70184859585892B41F021E08685CE
:101080009785892B09F020E0722E01C0712CF701A1
:10109000068117810115110589F049815A81B8012E
:1010A000C60159D055245394892B09F4512CF701CA
:1010B000408550E0B601C8015BD001C0512C2981A8
:1010C0003A81232BF1F0611004C0511002C070FE70
:1010D00018C0F701848595859787868781818F70F1
:1010E0008093E9008B8181118093F10069817A817D
:1010F00040E050E0C601A1D98091E8008E7780934E
:10110000E8008091E4009091E500F70193878287E1
:101110000FB6F8949EBE0FBE8DBE0FB6F894BEBE3D
:101120000FBEADBE0F900F900F90DF91CF911F912A
:101130000F91FF90EF90DF90CF90BF90AF909F9076
:101140008F907F906F905F900895EE0FFF1F059036
:10115000F491E02D0994FB01DC0104C08D91019014
:10116000801921F441505040C8F7881B990B08950D
:10117000FB01DC0102C001900D9241505040D8F7B4
:101180000895DC0101C06D9341505040E0F708958F
:04119000F894FFCF01
:1011940010291E1F202123222425262B141A08156A
:1011A4001C17180C120407160B090A0D0E330F1D19
:1011B4001B061905111036373838511E1F202131EE
:1011C4002E272D30522223242534132F3055502618
:1011D40027635728522C34294F305658362A5150F9
:1011E4004F008108000001640108000000000000B5
:0211F4000000F9
:00000001FF
